:020000040800F2
:100000007806002065010008C9040008B104000852
:1000100000000000000000000000000000000000E0
:10002000000000000000000000000000CD040008F7
:100030000000000000000000CB040008CF0400080E
:1000400077010008770100087701000877010008B0
:1000500077010008770100087701000877010008A0
:100060007701000877010008770100087701000890
:10007000770100087701000877010008D90400081B
:1000800039050008770100087701000877010008AA
:100090007701000877010008770100087701000860
:1000A0007701000877010008770100087701000850
:1000B0007701000877010008770100087701000840
:1000C00000F002F800F03EF80CA030C80838241800
:1000D0002D18A246671EAB4654465D46AC4201D180
:1000E00000F030F87E460F3E0FCCB6460126334274
:1000F00000D0FB1AA246AB46334318470007000066
:1001000020070000103A02D378C878C1FAD8520705
:1001100001D330C830C101D504680C6070470000BD
:100120000023002400250026103A01D378C1FBD813
:10013000520700D330C100D50B6070471FB51FBDFB
:1001400010B510BD00F0DAF81146FFF7F7FF00F028
:100150008DFA00F0F2F803B4FFF7F2FF03BC00F0F1
:10016000F9F800000748804707480047FEE7FEE728
:10017000FEE7FEE7FEE7FEE704480549054A064BB1
:1001800070470000D7040008C10000087800002074
:10019000780600207802002078020020002203095F
:1001A0008B422CD3030A8B4211D300239C464EE092
:1001B00003460B433CD4002243088B4231D303094E
:1001C0008B421CD3030A8B4201D394463FE0C30900
:1001D0008B4201D3CB01C01A524183098B4201D318
:1001E0008B01C01A524143098B4201D34B01C01A03
:1001F000524103098B4201D30B01C01A5241C3087B
:100200008B4201D3CB00C01A524183088B4201D3E9
:100210008B00C01A524143088B4201D34B00C01AD5
:100220005241411A00D201465241104670475DE0EA
:10023000CA0F00D04942031000D34042534000226D
:100240009C4603098B422DD3030A8B4212D3FC2216
:10025000890112BA030A8B420CD3890192118B4295
:1002600008D3890192118B4204D389013AD09211AB
:1002700000E08909C3098B4201D3CB01C01A524166
:1002800083098B4201D38B01C01A524143098B422F
:1002900001D34B01C01A524103098B4201D30B0118
:1002A000C01A5241C3088B4201D3CB00C01A52413D
:1002B00083088B4201D38B00C01A5241D9D2430824
:1002C0008B4201D34B00C01A5241411A00D2014661
:1002D000634652415B10104601D34042002B00D5CB
:1002E0004942704763465B1000D3404201B500208D
:1002F000C046C04602BD704770477047754600F063
:1003000025F8AE46050069465346C008C00085463C
:1003100018B020B5FFF730FF60BC00274908B6468B
:100320000026C0C5C0C5C0C5C0C5C0C5C0C5C0C504
:10033000C0C5403D49008D46704710B50446C046D3
:10034000C0462046FFF707FF10BD00000048704779
:100350001800002001491820ABBEFEE7260002006D
:10036000704700000E494869012252041043486159
:1003700048699200104348610A4A002010605060AA
:100380009060D06050614A6901239B041A434A611E
:1003900005490860C860486088604861704700008F
:1003A00000100240000800480004004870B50446F0
:1003B00000F00EF80546601C02D0044800782418AE
:1003C00000F006F8401BA042FAD370BD08000020E0
:1003D00001488068704700000800002002488168DA
:1003E00002788918816070470800002010B506481F
:1003F0000168102211430160032000F007F800F0AB
:1004000027F8002010BD00000020024070B504460F
:100410000D4D7D202978C000FFF7C0FE01460B4836
:100420000068FFF7BBFE00F02BF8002809D1042C70
:1004300007D200222146401E00F01EF800206C600A
:1004400070BD012070BD00000800002014000020D5
:1004500008B5084881690122114381618169114011
:100460000091C26901040A43C261C069084000905A
:1004700008BD00000010024010B500F0BFF810BD2C
:10048000094910B5401E884201D9012010BD074C12
:1004900060610321081F00F0B1F80020A06107206F
:1004A0002061002010BD0000FFFFFF0000E000E021
:1004B000FEE7000003480168552212031143016062
:1004C0007047000000080048FEE77047704710B50D
:1004D000FFF784FF10BD704707480178F02901D36A
:1004E000002101E00178491C0170012080070169A9
:1004F00049084900016170470000002070B50D48AF
:10050000C16901252943C161A81EAC07E062002032
:10051000A0627D214901E162FF21F431A1626062A4
:10052000E0682843E0600F2000F05CF82068284372
:10053000206070BD001002401548416849004160CC
:100540000921C9060969C90703D04168012211437D
:10055000416041680F4A914202D18178C94381705C
:10056000817800290DD1012189070A680A4B1A40B8
:100570000A600A498A690F239B051A438A61002190
:10058000017007480169490849000161704700008E
:1005900000000020FFFFFF7F0100FFFF0008004870
:1005A0000004004070B50D48C16902221143C161C9
:1005B0000B4CD01EE0620020A0623221E162FF21DC
:1005C000F431A1626062E06801252843E0601020F8
:1005D00000F008F820682843206070BD0010024039
:1005E00000040040002805DBC106C90E0120884038
:1005F000014908607047000000E100E08307FF2226
:10060000DB0E9A408907090E9940002808DB830811
:1006100009489B001B1818689043084318607047EE
:100620000007000F0838830804489B001B18D8698E
:1006300090430843D861704700E400E000ED00E01B
:1006400010B50920C0060168890889000160816829
:10065000890889008160C16889088900C160C16812
:1006600002221143C160FFF79DFF10BDFFF7BEFEE0
:10067000FFF778FEFFF71EFFFFF7E2FF0026144C9E
:100680000125144FAD07A078002815D000F026F8FA
:100690003220FFF78BFE00F045F83220FFF786FE90
:1006A00000F088F83220FFF781FE00F05FF832207A
:1006B000FFF77CFEA670E6E7286838402860064809
:1006C00081690F229205114381612670DBE70000EA
:1006D000000000200100FFFF0008004810B5FFF7F0
:1006E0000DFFFF220C480D49413202E0836913439C
:1006F00083610B784C789B08A342F7D301229207C1
:100700001368074C2340136082690F239B051A432B
:1007100082610020087010BD000800480000002021
:100720000100FFFF10B5FFF7E9FE05220C480D4957
:10073000D20102E08369134383610B784C789B08F4
:10074000A342F7D3012292071368074C234013609A
:1007500082690F239B051A4382610020087010BD37
:1007600000080048000000200100FFFF10B5FFF75F
:10077000C5FEFF220C480D49813202E08369134314
:1007800083610B784C789B08A342F7D30122920730
:100790001368074C2340136082690F239B051A439B
:1007A00082610020087010BD000800480000002091
:1007B0000100FFFF10B5FFF7A1FE0D480D494215DE
:1007C00002E08369134383610B784C789B08A34252
:1007D000F7D3012292071368074C23401360826904
:1007E0000F239B051A4382610020087010BD000092
:1007F00000080048000000200100FFFF1C0800085E
:10080000000000201800000004010008340800085F
:10081000180000206006000020010008001E0000F3
:1008200000000000010000000400000000000000C3
:0408300000127A0038
:04000005080000C12E
:00000001FF
